{
	"simple-storage.sol": {
		"SimpleStorage": {
			"abi": [
				{
					"inputs": [
						{
							"internalType": "string",
							"name": "_name",
							"type": "string"
						},
						{
							"internalType": "uint256",
							"name": "_favoriteNumber",
							"type": "uint256"
						}
					],
					"name": "addPerson",
					"outputs": [],
					"stateMutability": "nonpayable",
					"type": "function"
				},
				{
					"inputs": [
						{
							"internalType": "string",
							"name": "",
							"type": "string"
						}
					],
					"name": "nameToFavoriteNumber",
					"outputs": [
						{
							"internalType": "uint256",
							"name": "",
							"type": "uint256"
						}
					],
					"stateMutability": "view",
					"type": "function"
				},
				{
					"inputs": [],
					"name": "retrieve",
					"outputs": [
						{
							"internalType": "uint256",
							"name": "",
							"type": "uint256"
						}
					],
					"stateMutability": "view",
					"type": "function"
				},
				{
					"inputs": [
						{
							"internalType": "uint256",
							"name": "_favoriteNumber",
							"type": "uint256"
						}
					],
					"name": "store",
					"outputs": [],
					"stateMutability": "nonpayable",
					"type": "function"
				}
			],
			"devdoc": {
				"kind": "dev",
				"methods": {},
				"version": 1
			},
			"evm": {
				"assembly": "    /* \"simple-storage.sol\":56:587  contract SimpleStorage {... */\n  mstore(0x40, 0x80)\n  callvalue\n  dup1\n  iszero\n  tag_1\n  jumpi\n  0x00\n  dup1\n  revert\ntag_1:\n  pop\n  dataSize(sub_0)\n  dup1\n  dataOffset(sub_0)\n  0x00\n  codecopy\n  0x00\n  return\nstop\n\nsub_0: assembly {\n        /* \"simple-storage.sol\":56:587  contract SimpleStorage {... */\n      mstore(0x40, 0x80)\n      callvalue\n      dup1\n      iszero\n      tag_1\n      jumpi\n      0x00\n      dup1\n      revert\n    tag_1:\n      pop\n      jumpi(tag_2, lt(calldatasize, 0x04))\n      shr(0xe0, calldataload(0x00))\n      dup1\n      0x2e64cec1\n      eq\n      tag_3\n      jumpi\n      dup1\n      0x6057361d\n      eq\n      tag_4\n      jumpi\n      dup1\n      0x6f760f41\n      eq\n      tag_5\n      jumpi\n      dup1\n      0x8bab8dd5\n      eq\n      tag_6\n      jumpi\n    tag_2:\n      0x00\n      dup1\n      revert\n        /* \"simple-storage.sol\":358:445  function retrieve() public view returns(uint256) {... */\n    tag_3:\n      tag_7\n      tag_8\n      jump\t// in\n    tag_7:\n      mload(0x40)\n      tag_9\n      swap2\n      swap1\n      tag_10\n      jump\t// in\n    tag_9:\n      mload(0x40)\n      dup1\n      swap2\n      sub\n      swap1\n      return\n        /* \"simple-storage.sol\":256:352  function store(uint256 _favoriteNumber) public {... */\n    tag_4:\n      tag_11\n      0x04\n      dup1\n      calldatasize\n      sub\n      dup2\n      add\n      swap1\n      tag_12\n      swap2\n      swap1\n      tag_13\n      jump\t// in\n    tag_12:\n      tag_14\n      jump\t// in\n    tag_11:\n      stop\n        /* \"simple-storage.sol\":451:585  function addPerson(string memory _name, uint256 _favoriteNumber) public {... */\n    tag_5:\n      tag_15\n      0x04\n      dup1\n      calldatasize\n      sub\n      dup2\n      add\n      swap1\n      tag_16\n      swap2\n      swap1\n      tag_17\n      jump\t// in\n    tag_16:\n      tag_18\n      jump\t// in\n    tag_15:\n      stop\n        /* \"simple-storage.sol\":115:169  mapping(string => uint256) public nameToFavoriteNumber */\n    tag_6:\n      tag_19\n      0x04\n      dup1\n      calldatasize\n      sub\n      dup2\n      add\n      swap1\n      tag_20\n      swap2\n      swap1\n      tag_21\n      jump\t// in\n    tag_20:\n      tag_22\n      jump\t// in\n    tag_19:\n      mload(0x40)\n      tag_23\n      swap2\n      swap1\n      tag_10\n      jump\t// in\n    tag_23:\n      mload(0x40)\n      dup1\n      swap2\n      sub\n      swap1\n      return\n        /* \"simple-storage.sol\":358:445  function retrieve() public view returns(uint256) {... */\n    tag_8:\n        /* \"simple-storage.sol\":398:405  uint256 */\n      0x00\n        /* \"simple-storage.sol\":424:438  favoriteNumber */\n      dup1\n      sload\n        /* \"simple-storage.sol\":417:438  return favoriteNumber */\n      swap1\n      pop\n        /* \"simple-storage.sol\":358:445  function retrieve() public view returns(uint256) {... */\n      swap1\n      jump\t// out\n        /* \"simple-storage.sol\":256:352  function store(uint256 _favoriteNumber) public {... */\n    tag_14:\n        /* \"simple-storage.sol\":330:345  _favoriteNumber */\n      dup1\n        /* \"simple-storage.sol\":313:327  favoriteNumber */\n      0x00\n        /* \"simple-storage.sol\":313:345  favoriteNumber = _favoriteNumber */\n      dup2\n      swap1\n      sstore\n      pop\n        /* \"simple-storage.sol\":256:352  function store(uint256 _favoriteNumber) public {... */\n      pop\n      jump\t// out\n        /* \"simple-storage.sol\":451:585  function addPerson(string memory _name, uint256 _favoriteNumber) public {... */\n    tag_18:\n        /* \"simple-storage.sol\":563:578  _favoriteNumber */\n      dup1\n        /* \"simple-storage.sol\":533:553  nameToFavoriteNumber */\n      0x01\n        /* \"simple-storage.sol\":554:559  _name */\n      dup4\n        /* \"simple-storage.sol\":533:560  nameToFavoriteNumber[_name] */\n      mload(0x40)\n      tag_27\n      swap2\n      swap1\n      tag_28\n      jump\t// in\n    tag_27:\n      swap1\n      dup2\n      mstore\n      0x20\n      add\n      mload(0x40)\n      dup1\n      swap2\n      sub\n      swap1\n      keccak256\n        /* \"simple-storage.sol\":533:578  nameToFavoriteNumber[_name] = _favoriteNumber */\n      dup2\n      swap1\n      sstore\n      pop\n        /* \"simple-storage.sol\":451:585  function addPerson(string memory _name, uint256 _favoriteNumber) public {... */\n      pop\n      pop\n      jump\t// out\n        /* \"simple-storage.sol\":115:169  mapping(string => uint256) public nameToFavoriteNumber */\n    tag_22:\n      0x01\n      dup2\n      dup1\n      mload\n      0x20\n      dup2\n      add\n      dup3\n      add\n      dup1\n      mload\n      dup5\n      dup3\n      mstore\n      0x20\n      dup4\n      add\n      0x20\n      dup6\n      add\n      keccak256\n      dup2\n      dup4\n      mstore\n      dup1\n      swap6\n      pop\n      pop\n      pop\n      pop\n      pop\n      pop\n      0x00\n      swap2\n      pop\n      swap1\n      pop\n      sload\n      dup2\n      jump\t// out\n        /* \"#utility.yul\":7:84   */\n    tag_29:\n        /* \"#utility.yul\":44:51   */\n      0x00\n        /* \"#utility.yul\":73:78   */\n      dup2\n        /* \"#utility.yul\":62:78   */\n      swap1\n      pop\n        /* \"#utility.yul\":7:84   */\n      swap2\n      swap1\n      pop\n      jump\t// out\n        /* \"#utility.yul\":90:208   */\n    tag_30:\n        /* \"#utility.yul\":177:201   */\n      tag_53\n        /* \"#utility.yul\":195:200   */\n      dup2\n        /* \"#utility.yul\":177:201   */\n      tag_29\n      jump\t// in\n    tag_53:\n        /* \"#utility.yul\":172:175   */\n      dup3\n        /* \"#utility.yul\":165:202   */\n      mstore\n        /* \"#utility.yul\":90:208   */\n      pop\n      pop\n      jump\t// out\n        /* \"#utility.yul\":214:436   */\n    tag_10:\n        /* \"#utility.yul\":307:311   */\n      0x00\n        /* \"#utility.yul\":345:347   */\n      0x20\n        /* \"#utility.yul\":334:343   */\n      dup3\n        /* \"#utility.yul\":330:348   */\n      add\n        /* \"#utility.yul\":322:348   */\n      swap1\n      pop\n        /* \"#utility.yul\":358:429   */\n      tag_55\n        /* \"#utility.yul\":426:427   */\n      0x00\n        /* \"#utility.yul\":415:424   */\n      dup4\n        /* \"#utility.yul\":411:428   */\n      add\n        /* \"#utility.yul\":402:408   */\n      dup5\n        /* \"#utility.yul\":358:429   */\n      tag_30\n      jump\t// in\n    tag_55:\n        /* \"#utility.yul\":214:436   */\n      swap3\n      swap2\n      pop\n      pop\n      jump\t// out\n        /* \"#utility.yul\":442:517   */\n    tag_31:\n        /* \"#utility.yul\":475:481   */\n      0x00\n        /* \"#utility.yul\":508:510   */\n      0x40\n        /* \"#utility.yul\":502:511   */\n      mload\n        /* \"#utility.yul\":492:511   */\n      swap1\n      pop\n        /* \"#utility.yul\":442:517   */\n      swap1\n      jump\t// out\n        /* \"#utility.yul\":523:640   */\n    tag_32:\n        /* \"#utility.yul\":632:633   */\n      0x00\n        /* \"#utility.yul\":629:630   */\n      dup1\n        /* \"#utility.yul\":622:634   */\n      revert\n        /* \"#utility.yul\":646:763   */\n    tag_33:\n        /* \"#utility.yul\":755:756   */\n      0x00\n        /* \"#utility.yul\":752:753   */\n      dup1\n        /* \"#utility.yul\":745:757   */\n      revert\n        /* \"#utility.yul\":769:891   */\n    tag_34:\n        /* \"#utility.yul\":842:866   */\n      tag_60\n        /* \"#utility.yul\":860:865   */\n      dup2\n        /* \"#utility.yul\":842:866   */\n      tag_29\n      jump\t// in\n    tag_60:\n        /* \"#utility.yul\":835:840   */\n      dup2\n        /* \"#utility.yul\":832:867   */\n      eq\n        /* \"#utility.yul\":822:885   */\n      tag_61\n      jumpi\n        /* \"#utility.yul\":881:882   */\n      0x00\n        /* \"#utility.yul\":878:879   */\n      dup1\n        /* \"#utility.yul\":871:883   */\n      revert\n        /* \"#utility.yul\":822:885   */\n    tag_61:\n        /* \"#utility.yul\":769:891   */\n      pop\n      jump\t// out\n        /* \"#utility.yul\":897:1036   */\n    tag_35:\n        /* \"#utility.yul\":943:948   */\n      0x00\n        /* \"#utility.yul\":981:987   */\n      dup2\n        /* \"#utility.yul\":968:988   */\n      calldataload\n        /* \"#utility.yul\":959:988   */\n      swap1\n      pop\n        /* \"#utility.yul\":997:1030   */\n      tag_63\n        /* \"#utility.yul\":1024:1029   */\n      dup2\n        /* \"#utility.yul\":997:1030   */\n      tag_34\n      jump\t// in\n    tag_63:\n        /* \"#utility.yul\":897:1036   */\n      swap3\n      swap2\n      pop\n      pop\n      jump\t// out\n        /* \"#utility.yul\":1042:1371   */\n    tag_13:\n        /* \"#utility.yul\":1101:1107   */\n      0x00\n        /* \"#utility.yul\":1150:1152   */\n      0x20\n        /* \"#utility.yul\":1138:1147   */\n      dup3\n        /* \"#utility.yul\":1129:1136   */\n      dup5\n        /* \"#utility.yul\":1125:1148   */\n      sub\n        /* \"#utility.yul\":1121:1153   */\n      slt\n        /* \"#utility.yul\":1118:1237   */\n      iszero\n      tag_65\n      jumpi\n        /* \"#utility.yul\":1156:1235   */\n      tag_66\n      tag_32\n      jump\t// in\n    tag_66:\n        /* \"#utility.yul\":1118:1237   */\n    tag_65:\n        /* \"#utility.yul\":1276:1277   */\n      0x00\n        /* \"#utility.yul\":1301:1354   */\n      tag_67\n        /* \"#utility.yul\":1346:1353   */\n      dup5\n        /* \"#utility.yul\":1337:1343   */\n      dup3\n        /* \"#utility.yul\":1326:1335   */\n      dup6\n        /* \"#utility.yul\":1322:1344   */\n      add\n        /* \"#utility.yul\":1301:1354   */\n      tag_35\n      jump\t// in\n    tag_67:\n        /* \"#utility.yul\":1291:1354   */\n      swap2\n      pop\n        /* \"#utility.yul\":1247:1364   */\n      pop\n        /* \"#utility.yul\":1042:1371   */\n      swap3\n      swap2\n      pop\n      pop\n      jump\t// out\n        /* \"#utility.yul\":1377:1494   */\n    tag_36:\n        /* \"#utility.yul\":1486:1487   */\n      0x00\n        /* \"#utility.yul\":1483:1484   */\n      dup1\n        /* \"#utility.yul\":1476:1488   */\n      revert\n        /* \"#utility.yul\":1500:1617   */\n    tag_37:\n        /* \"#utility.yul\":1609:1610   */\n      0x00\n        /* \"#utility.yul\":1606:1607   */\n      dup1\n        /* \"#utility.yul\":1599:1611   */\n      revert\n        /* \"#utility.yul\":1623:1725   */\n    tag_38:\n        /* \"#utility.yul\":1664:1670   */\n      0x00\n        /* \"#utility.yul\":1715:1717   */\n      0x1f\n        /* \"#utility.yul\":1711:1718   */\n      not\n        /* \"#utility.yul\":1706:1708   */\n      0x1f\n        /* \"#utility.yul\":1699:1704   */\n      dup4\n        /* \"#utility.yul\":1695:1709   */\n      add\n        /* \"#utility.yul\":1691:1719   */\n      and\n        /* \"#utility.yul\":1681:1719   */\n      swap1\n      pop\n        /* \"#utility.yul\":1623:1725   */\n      swap2\n      swap1\n      pop\n      jump\t// out\n        /* \"#utility.yul\":1731:1911   */\n    tag_39:\n        /* \"#utility.yul\":1779:1856   */\n      0x4e487b7100000000000000000000000000000000000000000000000000000000\n        /* \"#utility.yul\":1776:1777   */\n      0x00\n        /* \"#utility.yul\":1769:1857   */\n      mstore\n        /* \"#utility.yul\":1876:1880   */\n      0x41\n        /* \"#utility.yul\":1873:1874   */\n      0x04\n        /* \"#utility.yul\":1866:1881   */\n      mstore\n        /* \"#utility.yul\":1900:1904   */\n      0x24\n        /* \"#utility.yul\":1897:1898   */\n      0x00\n        /* \"#utility.yul\":1890:1905   */\n      revert\n        /* \"#utility.yul\":1917:2198   */\n    tag_40:\n        /* \"#utility.yul\":2000:2027   */\n      tag_73\n        /* \"#utility.yul\":2022:2026   */\n      dup3\n        /* \"#utility.yul\":2000:2027   */\n      tag_38\n      jump\t// in\n    tag_73:\n        /* \"#utility.yul\":1992:1998   */\n      dup2\n        /* \"#utility.yul\":1988:2028   */\n      add\n        /* \"#utility.yul\":2130:2136   */\n      dup2\n        /* \"#utility.yul\":2118:2128   */\n      dup2\n        /* \"#utility.yul\":2115:2137   */\n      lt\n        /* \"#utility.yul\":2094:2112   */\n      0xffffffffffffffff\n        /* \"#utility.yul\":2082:2092   */\n      dup3\n        /* \"#utility.yul\":2079:2113   */\n      gt\n        /* \"#utility.yul\":2076:2138   */\n      or\n        /* \"#utility.yul\":2073:2161   */\n      iszero\n      tag_74\n      jumpi\n        /* \"#utility.yul\":2141:2159   */\n      tag_75\n      tag_39\n      jump\t// in\n    tag_75:\n        /* \"#utility.yul\":2073:2161   */\n    tag_74:\n        /* \"#utility.yul\":2181:2191   */\n      dup1\n        /* \"#utility.yul\":2177:2179   */\n      0x40\n        /* \"#utility.yul\":2170:2192   */\n      mstore\n        /* \"#utility.yul\":1960:2198   */\n      pop\n        /* \"#utility.yul\":1917:2198   */\n      pop\n      pop\n      jump\t// out\n        /* \"#utility.yul\":2204:2333   */\n    tag_41:\n        /* \"#utility.yul\":2238:2244   */\n      0x00\n        /* \"#utility.yul\":2265:2285   */\n      tag_77\n      tag_31\n      jump\t// in\n    tag_77:\n        /* \"#utility.yul\":2255:2285   */\n      swap1\n      pop\n        /* \"#utility.yul\":2294:2327   */\n      tag_78\n        /* \"#utility.yul\":2322:2326   */\n      dup3\n        /* \"#utility.yul\":2314:2320   */\n      dup3\n        /* \"#utility.yul\":2294:2327   */\n      tag_40\n      jump\t// in\n    tag_78:\n        /* \"#utility.yul\":2204:2333   */\n      swap2\n      swap1\n      pop\n      jump\t// out\n        /* \"#utility.yul\":2339:2647   */\n    tag_42:\n        /* \"#utility.yul\":2401:2405   */\n      0x00\n        /* \"#utility.yul\":2491:2509   */\n      0xffffffffffffffff\n        /* \"#utility.yul\":2483:2489   */\n      dup3\n        /* \"#utility.yul\":2480:2510   */\n      gt\n        /* \"#utility.yul\":2477:2533   */\n      iszero\n      tag_80\n      jumpi\n        /* \"#utility.yul\":2513:2531   */\n      tag_81\n      tag_39\n      jump\t// in\n    tag_81:\n        /* \"#utility.yul\":2477:2533   */\n    tag_80:\n        /* \"#utility.yul\":2551:2580   */\n      tag_82\n        /* \"#utility.yul\":2573:2579   */\n      dup3\n        /* \"#utility.yul\":2551:2580   */\n      tag_38\n      jump\t// in\n    tag_82:\n        /* \"#utility.yul\":2543:2580   */\n      swap1\n      pop\n        /* \"#utility.yul\":2635:2639   */\n      0x20\n        /* \"#utility.yul\":2629:2633   */\n      dup2\n        /* \"#utility.yul\":2625:2640   */\n      add\n        /* \"#utility.yul\":2617:2640   */\n      swap1\n      pop\n        /* \"#utility.yul\":2339:2647   */\n      swap2\n      swap1\n      pop\n      jump\t// out\n        /* \"#utility.yul\":2653:2807   */\n    tag_43:\n        /* \"#utility.yul\":2737:2743   */\n      dup3\n        /* \"#utility.yul\":2732:2735   */\n      dup2\n        /* \"#utility.yul\":2727:2730   */\n      dup4\n        /* \"#utility.yul\":2714:2744   */\n      calldatacopy\n        /* \"#utility.yul\":2799:2800   */\n      0x00\n        /* \"#utility.yul\":2790:2796   */\n      dup4\n        /* \"#utility.yul\":2785:2788   */\n      dup4\n        /* \"#utility.yul\":2781:2797   */\n      add\n        /* \"#utility.yul\":2774:2801   */\n      mstore\n        /* \"#utility.yul\":2653:2807   */\n      pop\n      pop\n      pop\n      jump\t// out\n        /* \"#utility.yul\":2813:3225   */\n    tag_44:\n        /* \"#utility.yul\":2891:2896   */\n      0x00\n        /* \"#utility.yul\":2916:2982   */\n      tag_85\n        /* \"#utility.yul\":2932:2981   */\n      tag_86\n        /* \"#utility.yul\":2974:2980   */\n      dup5\n        /* \"#utility.yul\":2932:2981   */\n      tag_42\n      jump\t// in\n    tag_86:\n        /* \"#utility.yul\":2916:2982   */\n      tag_41\n      jump\t// in\n    tag_85:\n        /* \"#utility.yul\":2907:2982   */\n      swap1\n      pop\n        /* \"#utility.yul\":3005:3011   */\n      dup3\n        /* \"#utility.yul\":2998:3003   */\n      dup2\n        /* \"#utility.yul\":2991:3012   */\n      mstore\n        /* \"#utility.yul\":3043:3047   */\n      0x20\n        /* \"#utility.yul\":3036:3041   */\n      dup2\n        /* \"#utility.yul\":3032:3048   */\n      add\n        /* \"#utility.yul\":3081:3084   */\n      dup5\n        /* \"#utility.yul\":3072:3078   */\n      dup5\n        /* \"#utility.yul\":3067:3070   */\n      dup5\n        /* \"#utility.yul\":3063:3079   */\n      add\n        /* \"#utility.yul\":3060:3085   */\n      gt\n        /* \"#utility.yul\":3057:3169   */\n      iszero\n      tag_87\n      jumpi\n        /* \"#utility.yul\":3088:3167   */\n      tag_88\n      tag_37\n      jump\t// in\n    tag_88:\n        /* \"#utility.yul\":3057:3169   */\n    tag_87:\n        /* \"#utility.yul\":3178:3219   */\n      tag_89\n        /* \"#utility.yul\":3212:3218   */\n      dup5\n        /* \"#utility.yul\":3207:3210   */\n      dup3\n        /* \"#utility.yul\":3202:3205   */\n      dup6\n        /* \"#utility.yul\":3178:3219   */\n      tag_43\n      jump\t// in\n    tag_89:\n        /* \"#utility.yul\":2897:3225   */\n      pop\n        /* \"#utility.yul\":2813:3225   */\n      swap4\n      swap3\n      pop\n      pop\n      pop\n      jump\t// out\n        /* \"#utility.yul\":3245:3585   */\n    tag_45:\n        /* \"#utility.yul\":3301:3306   */\n      0x00\n        /* \"#utility.yul\":3350:3353   */\n      dup3\n        /* \"#utility.yul\":3343:3347   */\n      0x1f\n        /* \"#utility.yul\":3335:3341   */\n      dup4\n        /* \"#utility.yul\":3331:3348   */\n      add\n        /* \"#utility.yul\":3327:3354   */\n      slt\n        /* \"#utility.yul\":3317:3439   */\n      tag_91\n      jumpi\n        /* \"#utility.yul\":3358:3437   */\n      tag_92\n      tag_36\n      jump\t// in\n    tag_92:\n        /* \"#utility.yul\":3317:3439   */\n    tag_91:\n        /* \"#utility.yul\":3475:3481   */\n      dup2\n        /* \"#utility.yul\":3462:3482   */\n      calldataload\n        /* \"#utility.yul\":3500:3579   */\n      tag_93\n        /* \"#utility.yul\":3575:3578   */\n      dup5\n        /* \"#utility.yul\":3567:3573   */\n      dup3\n        /* \"#utility.yul\":3560:3564   */\n      0x20\n        /* \"#utility.yul\":3552:3558   */\n      dup7\n        /* \"#utility.yul\":3548:3565   */\n      add\n        /* \"#utility.yul\":3500:3579   */\n      tag_44\n      jump\t// in\n    tag_93:\n        /* \"#utility.yul\":3491:3579   */\n      swap2\n      pop\n        /* \"#utility.yul\":3307:3585   */\n      pop\n        /* \"#utility.yul\":3245:3585   */\n      swap3\n      swap2\n      pop\n      pop\n      jump\t// out\n        /* \"#utility.yul\":3591:4245   */\n    tag_17:\n        /* \"#utility.yul\":3669:3675   */\n      0x00\n        /* \"#utility.yul\":3677:3683   */\n      dup1\n        /* \"#utility.yul\":3726:3728   */\n      0x40\n        /* \"#utility.yul\":3714:3723   */\n      dup4\n        /* \"#utility.yul\":3705:3712   */\n      dup6\n        /* \"#utility.yul\":3701:3724   */\n      sub\n        /* \"#utility.yul\":3697:3729   */\n      slt\n        /* \"#utility.yul\":3694:3813   */\n      iszero\n      tag_95\n      jumpi\n        /* \"#utility.yul\":3732:3811   */\n      tag_96\n      tag_32\n      jump\t// in\n    tag_96:\n        /* \"#utility.yul\":3694:3813   */\n    tag_95:\n        /* \"#utility.yul\":3880:3881   */\n      0x00\n        /* \"#utility.yul\":3869:3878   */\n      dup4\n        /* \"#utility.yul\":3865:3882   */\n      add\n        /* \"#utility.yul\":3852:3883   */\n      calldataload\n        /* \"#utility.yul\":3910:3928   */\n      0xffffffffffffffff\n        /* \"#utility.yul\":3902:3908   */\n      dup2\n        /* \"#utility.yul\":3899:3929   */\n      gt\n        /* \"#utility.yul\":3896:4013   */\n      iszero\n      tag_97\n      jumpi\n        /* \"#utility.yul\":3932:4011   */\n      tag_98\n      tag_33\n      jump\t// in\n    tag_98:\n        /* \"#utility.yul\":3896:4013   */\n    tag_97:\n        /* \"#utility.yul\":4037:4100   */\n      tag_99\n        /* \"#utility.yul\":4092:4099   */\n      dup6\n        /* \"#utility.yul\":4083:4089   */\n      dup3\n        /* \"#utility.yul\":4072:4081   */\n      dup7\n        /* \"#utility.yul\":4068:4090   */\n      add\n        /* \"#utility.yul\":4037:4100   */\n      tag_45\n      jump\t// in\n    tag_99:\n        /* \"#utility.yul\":4027:4100   */\n      swap3\n      pop\n        /* \"#utility.yul\":3823:4110   */\n      pop\n        /* \"#utility.yul\":4149:4151   */\n      0x20\n        /* \"#utility.yul\":4175:4228   */\n      tag_100\n        /* \"#utility.yul\":4220:4227   */\n      dup6\n        /* \"#utility.yul\":4211:4217   */\n      dup3\n        /* \"#utility.yul\":4200:4209   */\n      dup7\n        /* \"#utility.yul\":4196:4218   */\n      add\n        /* \"#utility.yul\":4175:4228   */\n      tag_35\n      jump\t// in\n    tag_100:\n        /* \"#utility.yul\":4165:4228   */\n      swap2\n      pop\n        /* \"#utility.yul\":4120:4238   */\n      pop\n        /* \"#utility.yul\":3591:4245   */\n      swap3\n      pop\n      swap3\n      swap1\n      pop\n      jump\t// out\n        /* \"#utility.yul\":4251:4760   */\n    tag_21:\n        /* \"#utility.yul\":4320:4326   */\n      0x00\n        /* \"#utility.yul\":4369:4371   */\n      0x20\n        /* \"#utility.yul\":4357:4366   */\n      dup3\n        /* \"#utility.yul\":4348:4355   */\n      dup5\n        /* \"#utility.yul\":4344:4367   */\n      sub\n        /* \"#utility.yul\":4340:4372   */\n      slt\n        /* \"#utility.yul\":4337:4456   */\n      iszero\n      tag_102\n      jumpi\n        /* \"#utility.yul\":4375:4454   */\n      tag_103\n      tag_32\n      jump\t// in\n    tag_103:\n        /* \"#utility.yul\":4337:4456   */\n    tag_102:\n        /* \"#utility.yul\":4523:4524   */\n      0x00\n        /* \"#utility.yul\":4512:4521   */\n      dup3\n        /* \"#utility.yul\":4508:4525   */\n      add\n        /* \"#utility.yul\":4495:4526   */\n      calldataload\n        /* \"#utility.yul\":4553:4571   */\n      0xffffffffffffffff\n        /* \"#utility.yul\":4545:4551   */\n      dup2\n        /* \"#utility.yul\":4542:4572   */\n      gt\n        /* \"#utility.yul\":4539:4656   */\n      iszero\n      tag_104\n      jumpi\n        /* \"#utility.yul\":4575:4654   */\n      tag_105\n      tag_33\n      jump\t// in\n    tag_105:\n        /* \"#utility.yul\":4539:4656   */\n    tag_104:\n        /* \"#utility.yul\":4680:4743   */\n      tag_106\n        /* \"#utility.yul\":4735:4742   */\n      dup5\n        /* \"#utility.yul\":4726:4732   */\n      dup3\n        /* \"#utility.yul\":4715:4724   */\n      dup6\n        /* \"#utility.yul\":4711:4733   */\n      add\n        /* \"#utility.yul\":4680:4743   */\n      tag_45\n      jump\t// in\n    tag_106:\n        /* \"#utility.yul\":4670:4743   */\n      swap2\n      pop\n        /* \"#utility.yul\":4466:4753   */\n      pop\n        /* \"#utility.yul\":4251:4760   */\n      swap3\n      swap2\n      pop\n      pop\n      jump\t// out\n        /* \"#utility.yul\":4766:4865   */\n    tag_46:\n        /* \"#utility.yul\":4818:4824   */\n      0x00\n        /* \"#utility.yul\":4852:4857   */\n      dup2\n        /* \"#utility.yul\":4846:4858   */\n      mload\n        /* \"#utility.yul\":4836:4858   */\n      swap1\n      pop\n        /* \"#utility.yul\":4766:4865   */\n      swap2\n      swap1\n      pop\n      jump\t// out\n        /* \"#utility.yul\":4871:5019   */\n    tag_47:\n        /* \"#utility.yul\":4973:4984   */\n      0x00\n        /* \"#utility.yul\":5010:5013   */\n      dup2\n        /* \"#utility.yul\":4995:5013   */\n      swap1\n      pop\n        /* \"#utility.yul\":4871:5019   */\n      swap3\n      swap2\n      pop\n      pop\n      jump\t// out\n        /* \"#utility.yul\":5025:5332   */\n    tag_48:\n        /* \"#utility.yul\":5093:5094   */\n      0x00\n        /* \"#utility.yul\":5103:5216   */\n    tag_110:\n        /* \"#utility.yul\":5117:5123   */\n      dup4\n        /* \"#utility.yul\":5114:5115   */\n      dup2\n        /* \"#utility.yul\":5111:5124   */\n      lt\n        /* \"#utility.yul\":5103:5216   */\n      iszero\n      tag_112\n      jumpi\n        /* \"#utility.yul\":5202:5203   */\n      dup1\n        /* \"#utility.yul\":5197:5200   */\n      dup3\n        /* \"#utility.yul\":5193:5204   */\n      add\n        /* \"#utility.yul\":5187:5205   */\n      mload\n        /* \"#utility.yul\":5183:5184   */\n      dup2\n        /* \"#utility.yul\":5178:5181   */\n      dup5\n        /* \"#utility.yul\":5174:5185   */\n      add\n        /* \"#utility.yul\":5167:5206   */\n      mstore\n        /* \"#utility.yul\":5139:5141   */\n      0x20\n        /* \"#utility.yul\":5136:5137   */\n      dup2\n        /* \"#utility.yul\":5132:5142   */\n      add\n        /* \"#utility.yul\":5127:5142   */\n      swap1\n      pop\n        /* \"#utility.yul\":5103:5216   */\n      jump(tag_110)\n    tag_112:\n        /* \"#utility.yul\":5234:5240   */\n      dup4\n        /* \"#utility.yul\":5231:5232   */\n      dup2\n        /* \"#utility.yul\":5228:5241   */\n      gt\n        /* \"#utility.yul\":5225:5326   */\n      iszero\n      tag_113\n      jumpi\n        /* \"#utility.yul\":5314:5315   */\n      0x00\n        /* \"#utility.yul\":5305:5311   */\n      dup5\n        /* \"#utility.yul\":5300:5303   */\n      dup5\n        /* \"#utility.yul\":5296:5312   */\n      add\n        /* \"#utility.yul\":5289:5316   */\n      mstore\n        /* \"#utility.yul\":5225:5326   */\n    tag_113:\n        /* \"#utility.yul\":5074:5332   */\n      pop\n        /* \"#utility.yul\":5025:5332   */\n      pop\n      pop\n      pop\n      jump\t// out\n        /* \"#utility.yul\":5338:5715   */\n    tag_49:\n        /* \"#utility.yul\":5444:5447   */\n      0x00\n        /* \"#utility.yul\":5472:5511   */\n      tag_115\n        /* \"#utility.yul\":5505:5510   */\n      dup3\n        /* \"#utility.yul\":5472:5511   */\n      tag_46\n      jump\t// in\n    tag_115:\n        /* \"#utility.yul\":5527:5616   */\n      tag_116\n        /* \"#utility.yul\":5609:5615   */\n      dup2\n        /* \"#utility.yul\":5604:5607   */\n      dup6\n        /* \"#utility.yul\":5527:5616   */\n      tag_47\n      jump\t// in\n    tag_116:\n        /* \"#utility.yul\":5520:5616   */\n      swap4\n      pop\n        /* \"#utility.yul\":5625:5677   */\n      tag_117\n        /* \"#utility.yul\":5670:5676   */\n      dup2\n        /* \"#utility.yul\":5665:5668   */\n      dup6\n        /* \"#utility.yul\":5658:5662   */\n      0x20\n        /* \"#utility.yul\":5651:5656   */\n      dup7\n        /* \"#utility.yul\":5647:5663   */\n      add\n        /* \"#utility.yul\":5625:5677   */\n      tag_48\n      jump\t// in\n    tag_117:\n        /* \"#utility.yul\":5702:5708   */\n      dup1\n        /* \"#utility.yul\":5697:5700   */\n      dup5\n        /* \"#utility.yul\":5693:5709   */\n      add\n        /* \"#utility.yul\":5686:5709   */\n      swap2\n      pop\n        /* \"#utility.yul\":5448:5715   */\n      pop\n        /* \"#utility.yul\":5338:5715   */\n      swap3\n      swap2\n      pop\n      pop\n      jump\t// out\n        /* \"#utility.yul\":5721:5996   */\n    tag_28:\n        /* \"#utility.yul\":5853:5856   */\n      0x00\n        /* \"#utility.yul\":5875:5970   */\n      tag_119\n        /* \"#utility.yul\":5966:5969   */\n      dup3\n        /* \"#utility.yul\":5957:5963   */\n      dup5\n        /* \"#utility.yul\":5875:5970   */\n      tag_49\n      jump\t// in\n    tag_119:\n        /* \"#utility.yul\":5868:5970   */\n      swap2\n      pop\n        /* \"#utility.yul\":5987:5990   */\n      dup2\n        /* \"#utility.yul\":5980:5990   */\n      swap1\n      pop\n        /* \"#utility.yul\":5721:5996   */\n      swap3\n      swap2\n      pop\n      pop\n      jump\t// out\n\n    auxdata: 0xa264697066735822122064bb68dbcb9dc6ce2128b67c61701cf54c2d131fcbb934617870e8b8e4077d6364736f6c634300080f0033\n}\n",
				"bytecode": {
					"linkReferences": {},
					"object": "608060405234801561001057600080fd5b50610492806100206000396000f3fe608060405234801561001057600080fd5b506004361061004c5760003560e01c80632e64cec1146100515780636057361d1461006f5780636f760f411461008b5780638bab8dd5146100a7575b600080fd5b6100596100d7565b6040516100669190610158565b60405180910390f35b610089600480360381019061008491906101b3565b6100e0565b005b6100a560048036038101906100a09190610326565b6100ea565b005b6100c160048036038101906100bc9190610382565b610111565b6040516100ce9190610158565b60405180910390f35b60008054905090565b8060008190555050565b806001836040516100fb9190610445565b9081526020016040518091039020819055505050565b6001818051602081018201805184825260208301602085012081835280955050505050506000915090505481565b6000819050919050565b6101528161013f565b82525050565b600060208201905061016d6000830184610149565b92915050565b6000604051905090565b600080fd5b600080fd5b6101908161013f565b811461019b57600080fd5b50565b6000813590506101ad81610187565b92915050565b6000602082840312156101c9576101c861017d565b5b60006101d78482850161019e565b91505092915050565b600080fd5b600080fd5b6000601f19601f8301169050919050565b7f4e487b7100000000000000000000000000000000000000000000000000000000600052604160045260246000fd5b610233826101ea565b810181811067ffffffffffffffff82111715610252576102516101fb565b5b80604052505050565b6000610265610173565b9050610271828261022a565b919050565b600067ffffffffffffffff821115610291576102906101fb565b5b61029a826101ea565b9050602081019050919050565b82818337600083830152505050565b60006102c96102c484610276565b61025b565b9050828152602081018484840111156102e5576102e46101e5565b5b6102f08482856102a7565b509392505050565b600082601f83011261030d5761030c6101e0565b5b813561031d8482602086016102b6565b91505092915050565b6000806040838503121561033d5761033c61017d565b5b600083013567ffffffffffffffff81111561035b5761035a610182565b5b610367858286016102f8565b92505060206103788582860161019e565b9150509250929050565b6000602082840312156103985761039761017d565b5b600082013567ffffffffffffffff8111156103b6576103b5610182565b5b6103c2848285016102f8565b91505092915050565b600081519050919050565b600081905092915050565b60005b838110156103ff5780820151818401526020810190506103e4565b8381111561040e576000848401525b50505050565b600061041f826103cb565b61042981856103d6565b93506104398185602086016103e1565b80840191505092915050565b60006104518284610414565b91508190509291505056fea264697066735822122064bb68dbcb9dc6ce2128b67c61701cf54c2d131fcbb934617870e8b8e4077d6364736f6c634300080f0033",
					"opcodes": "PUSH1 0x80 PUSH1 0x40 MSTORE CALLVALUE DUP1 ISZERO PUSH2 0x10 JUMPI PUSH1 0x0 DUP1 REVERT JUMPDEST POP PUSH2 0x492 DUP1 PUSH2 0x20 PUSH1 0x0 CODECOPY PUSH1 0x0 RETURN INVALID PUSH1 0x80 PUSH1 0x40 MSTORE CALLVALUE DUP1 ISZERO PUSH2 0x10 JUMPI PUSH1 0x0 DUP1 REVERT JUMPDEST POP PUSH1 0x4 CALLDATASIZE LT PUSH2 0x4C JUMPI PUSH1 0x0 CALLDATALOAD PUSH1 0xE0 SHR DUP1 PUSH4 0x2E64CEC1 EQ PUSH2 0x51 JUMPI DUP1 PUSH4 0x6057361D EQ PUSH2 0x6F JUMPI DUP1 PUSH4 0x6F760F41 EQ PUSH2 0x8B JUMPI DUP1 PUSH4 0x8BAB8DD5 EQ PUSH2 0xA7 JUMPI JUMPDEST PUSH1 0x0 DUP1 REVERT JUMPDEST PUSH2 0x59 PUSH2 0xD7 JUMP JUMPDEST PUSH1 0x40 MLOAD PUSH2 0x66 SWAP2 SWAP1 PUSH2 0x158 JUMP JUMPDEST PUSH1 0x40 MLOAD DUP1 SWAP2 SUB SWAP1 RETURN JUMPDEST PUSH2 0x89 PUSH1 0x4 DUP1 CALLDATASIZE SUB DUP2 ADD SWAP1 PUSH2 0x84 SWAP2 SWAP1 PUSH2 0x1B3 JUMP JUMPDEST PUSH2 0xE0 JUMP JUMPDEST STOP JUMPDEST PUSH2 0xA5 PUSH1 0x4 DUP1 CALLDATASIZE SUB DUP2 ADD SWAP1 PUSH2 0xA0 SWAP2 SWAP1 PUSH2 0x326 JUMP JUMPDEST PUSH2 0xEA JUMP JUMPDEST STOP JUMPDEST PUSH2 0xC1 PUSH1 0x4 DUP1 CALLDATASIZE SUB DUP2 ADD SWAP1 PUSH2 0xBC SWAP2 SWAP1 PUSH2 0x382 JUMP JUMPDEST PUSH2 0x111 JUMP JUMPDEST PUSH1 0x40 MLOAD PUSH2 0xCE SWAP2 SWAP1 PUSH2 0x158 JUMP JUMPDEST PUSH1 0x40 MLOAD DUP1 SWAP2 SUB SWAP1 RETURN JUMPDEST PUSH1 0x0 DUP1 SLOAD SWAP1 POP SWAP1 JUMP JUMPDEST DUP1 PUSH1 0x0 DUP2 SWAP1 SSTORE POP POP JUMP JUMPDEST DUP1 PUSH1 0x1 DUP4 PUSH1 0x40 MLOAD PUSH2 0xFB SWAP2 SWAP1 PUSH2 0x445 JUMP JUMPDEST SWAP1 DUP2 MSTORE PUSH1 0x20 ADD PUSH1 0x40 MLOAD DUP1 SWAP2 SUB SWAP1 KECCAK256 DUP2 SWAP1 SSTORE POP POP POP JUMP JUMPDEST PUSH1 0x1 DUP2 DUP1 MLOAD PUSH1 0x20 DUP2 ADD DUP3 ADD DUP1 MLOAD DUP5 DUP3 MSTORE PUSH1 0x20 DUP4 ADD PUSH1 0x20 DUP6 ADD KECCAK256 DUP2 DUP4 MSTORE DUP1 SWAP6 POP POP POP POP POP POP PUSH1 0x0 SWAP2 POP SWAP1 POP SLOAD DUP2 JUMP JUMPDEST PUSH1 0x0 DUP2 SWAP1 POP SWAP2 SWAP1 POP JUMP JUMPDEST PUSH2 0x152 DUP2 PUSH2 0x13F JUMP JUMPDEST DUP3 MSTORE POP POP JUMP JUMPDEST PUSH1 0x0 PUSH1 0x20 DUP3 ADD SWAP1 POP PUSH2 0x16D PUSH1 0x0 DUP4 ADD DUP5 PUSH2 0x149 JUMP JUMPDEST SWAP3 SWAP2 POP POP JUMP JUMPDEST PUSH1 0x0 PUSH1 0x40 MLOAD SWAP1 POP SWAP1 JUMP JUMPDEST PUSH1 0x0 DUP1 REVERT JUMPDEST PUSH1 0x0 DUP1 REVERT JUMPDEST PUSH2 0x190 DUP2 PUSH2 0x13F JUMP JUMPDEST DUP2 EQ PUSH2 0x19B JUMPI PUSH1 0x0 DUP1 REVERT JUMPDEST POP JUMP JUMPDEST PUSH1 0x0 DUP2 CALLDATALOAD SWAP1 POP PUSH2 0x1AD DUP2 PUSH2 0x187 JUMP JUMPDEST SWAP3 SWAP2 POP POP JUMP JUMPDEST PUSH1 0x0 PUSH1 0x20 DUP3 DUP5 SUB SLT ISZERO PUSH2 0x1C9 JUMPI PUSH2 0x1C8 PUSH2 0x17D JUMP JUMPDEST JUMPDEST PUSH1 0x0 PUSH2 0x1D7 DUP5 DUP3 DUP6 ADD PUSH2 0x19E JUMP JUMPDEST SWAP2 POP POP SWAP3 SWAP2 POP POP JUMP JUMPDEST PUSH1 0x0 DUP1 REVERT JUMPDEST PUSH1 0x0 DUP1 REVERT JUMPDEST PUSH1 0x0 PUSH1 0x1F NOT PUSH1 0x1F DUP4 ADD AND SWAP1 POP SWAP2 SWAP1 POP JUMP JUMPDEST PUSH32 0x4E487B7100000000000000000000000000000000000000000000000000000000 PUSH1 0x0 MSTORE PUSH1 0x41 PUSH1 0x4 MSTORE PUSH1 0x24 PUSH1 0x0 REVERT JUMPDEST PUSH2 0x233 DUP3 PUSH2 0x1EA JUMP JUMPDEST DUP2 ADD DUP2 DUP2 LT PUSH8 0xFFFFFFFFFFFFFFFF DUP3 GT OR ISZERO PUSH2 0x252 JUMPI PUSH2 0x251 PUSH2 0x1FB JUMP JUMPDEST JUMPDEST DUP1 PUSH1 0x40 MSTORE POP POP POP JUMP JUMPDEST PUSH1 0x0 PUSH2 0x265 PUSH2 0x173 JUMP JUMPDEST SWAP1 POP PUSH2 0x271 DUP3 DUP3 PUSH2 0x22A JUMP JUMPDEST SWAP2 SWAP1 POP JUMP JUMPDEST PUSH1 0x0 PUSH8 0xFFFFFFFFFFFFFFFF DUP3 GT ISZERO PUSH2 0x291 JUMPI PUSH2 0x290 PUSH2 0x1FB JUMP JUMPDEST JUMPDEST PUSH2 0x29A DUP3 PUSH2 0x1EA JUMP JUMPDEST SWAP1 POP PUSH1 0x20 DUP2 ADD SWAP1 POP SWAP2 SWAP1 POP JUMP JUMPDEST DUP3 DUP2 DUP4 CALLDATACOPY PUSH1 0x0 DUP4 DUP4 ADD MSTORE POP POP POP JUMP JUMPDEST PUSH1 0x0 PUSH2 0x2C9 PUSH2 0x2C4 DUP5 PUSH2 0x276 JUMP JUMPDEST PUSH2 0x25B JUMP JUMPDEST SWAP1 POP DUP3 DUP2 MSTORE PUSH1 0x20 DUP2 ADD DUP5 DUP5 DUP5 ADD GT ISZERO PUSH2 0x2E5 JUMPI PUSH2 0x2E4 PUSH2 0x1E5 JUMP JUMPDEST JUMPDEST PUSH2 0x2F0 DUP5 DUP3 DUP6 PUSH2 0x2A7 JUMP JUMPDEST POP SWAP4 SWAP3 POP POP POP JUMP JUMPDEST PUSH1 0x0 DUP3 PUSH1 0x1F DUP4 ADD SLT PUSH2 0x30D JUMPI PUSH2 0x30C PUSH2 0x1E0 JUMP JUMPDEST JUMPDEST DUP2 CALLDATALOAD PUSH2 0x31D DUP5 DUP3 PUSH1 0x20 DUP7 ADD PUSH2 0x2B6 JUMP JUMPDEST SWAP2 POP POP SWAP3 SWAP2 POP POP JUMP JUMPDEST PUSH1 0x0 DUP1 PUSH1 0x40 DUP4 DUP6 SUB SLT ISZERO PUSH2 0x33D JUMPI PUSH2 0x33C PUSH2 0x17D JUMP JUMPDEST JUMPDEST PUSH1 0x0 DUP4 ADD CALLDATALOAD PUSH8 0xFFFFFFFFFFFFFFFF DUP2 GT ISZERO PUSH2 0x35B JUMPI PUSH2 0x35A PUSH2 0x182 JUMP JUMPDEST JUMPDEST PUSH2 0x367 DUP6 DUP3 DUP7 ADD PUSH2 0x2F8 JUMP JUMPDEST SWAP3 POP POP PUSH1 0x20 PUSH2 0x378 DUP6 DUP3 DUP7 ADD PUSH2 0x19E JUMP JUMPDEST SWAP2 POP POP SWAP3 POP SWAP3 SWAP1 POP JUMP JUMPDEST PUSH1 0x0 PUSH1 0x20 DUP3 DUP5 SUB SLT ISZERO PUSH2 0x398 JUMPI PUSH2 0x397 PUSH2 0x17D JUMP JUMPDEST JUMPDEST PUSH1 0x0 DUP3 ADD CALLDATALOAD PUSH8 0xFFFFFFFFFFFFFFFF DUP2 GT ISZERO PUSH2 0x3B6 JUMPI PUSH2 0x3B5 PUSH2 0x182 JUMP JUMPDEST JUMPDEST PUSH2 0x3C2 DUP5 DUP3 DUP6 ADD PUSH2 0x2F8 JUMP JUMPDEST SWAP2 POP POP SWAP3 SWAP2 POP POP JUMP JUMPDEST PUSH1 0x0 DUP2 MLOAD SWAP1 POP SWAP2 SWAP1 POP JUMP JUMPDEST PUSH1 0x0 DUP2 SWAP1 POP SWAP3 SWAP2 POP POP JUMP JUMPDEST PUSH1 0x0 JUMPDEST DUP4 DUP2 LT ISZERO PUSH2 0x3FF JUMPI DUP1 DUP3 ADD MLOAD DUP2 DUP5 ADD MSTORE PUSH1 0x20 DUP2 ADD SWAP1 POP PUSH2 0x3E4 JUMP JUMPDEST DUP4 DUP2 GT ISZERO PUSH2 0x40E JUMPI PUSH1 0x0 DUP5 DUP5 ADD MSTORE JUMPDEST POP POP POP POP JUMP JUMPDEST PUSH1 0x0 PUSH2 0x41F DUP3 PUSH2 0x3CB JUMP JUMPDEST PUSH2 0x429 DUP2 DUP6 PUSH2 0x3D6 JUMP JUMPDEST SWAP4 POP PUSH2 0x439 DUP2 DUP6 PUSH1 0x20 DUP7 ADD PUSH2 0x3E1 JUMP JUMPDEST DUP1 DUP5 ADD SWAP2 POP POP SWAP3 SWAP2 POP POP JUMP JUMPDEST PUSH1 0x0 PUSH2 0x451 DUP3 DUP5 PUSH2 0x414 JUMP JUMPDEST SWAP2 POP DUP2 SWAP1 POP SWAP3 SWAP2 POP POP JUMP INVALID LOG2 PUSH5 0x6970667358 0x22 SLT KECCAK256 PUSH5 0xBB68DBCB9D 0xC6 0xCE 0x21 0x28 0xB6 PUSH29 0x61701CF54C2D131FCBB934617870E8B8E4077D6364736F6C634300080F STOP CALLER "
				},
				"gasEstimates": {
					"creation": {
						"codeDepositCost": "234000",
						"executionCost": "275",
						"totalCost": "234275"
					},
					"external": {
						"addPerson(string,uint256)": "infinite",
						"nameToFavoriteNumber(string)": "infinite",
						"retrieve()": "2415",
						"store(uint256)": "22520"
					}
				},
				"methodIdentifiers": {
					"addPerson(string,uint256)": "6f760f41",
					"nameToFavoriteNumber(string)": "8bab8dd5",
					"retrieve()": "2e64cec1",
					"store(uint256)": "6057361d"
				}
			},
			"storageLayout": {
				"storage": [
					{
						"astId": 3,
						"contract": "simple-storage.sol:SimpleStorage",
						"label": "favoriteNumber",
						"offset": 0,
						"slot": "0",
						"type": "t_uint256"
					},
					{
						"astId": 7,
						"contract": "simple-storage.sol:SimpleStorage",
						"label": "nameToFavoriteNumber",
						"offset": 0,
						"slot": "1",
						"type": "t_mapping(t_string_memory_ptr,t_uint256)"
					}
				],
				"types": {
					"t_mapping(t_string_memory_ptr,t_uint256)": {
						"encoding": "mapping",
						"key": "t_string_memory_ptr",
						"label": "mapping(string => uint256)",
						"numberOfBytes": "32",
						"value": "t_uint256"
					},
					"t_string_memory_ptr": {
						"encoding": "bytes",
						"label": "string",
						"numberOfBytes": "32"
					},
					"t_uint256": {
						"encoding": "inplace",
						"label": "uint256",
						"numberOfBytes": "32"
					}
				}
			},
			"userdoc": {
				"kind": "user",
				"methods": {},
				"version": 1
			}
		}
	}
}